:100000000C9413030C945A030C945A030C945A0343
:100010000C945A030C945A030C945A030C945A03EC
:100020000C945A030C945A030C946A310C943C328D
:100030000C94722C0C945A030C945A030C945A038B
:100040000C945A030C945A030C945A030C945A03BC
:100050000C945A030C94E72C0C945A030C945A03F6
:100060000C945A030C945A030C945A030C945A039C
:100070000C945A030C945A030C945A030C945A038C
:100080000C945A030C945A030C945A030C945A037C
:100090000C945A030C945A030C945A030C945A036C
:1000A0000C945A030C945A030C945A037D057D0555
:1000B000AF05AF05FC051A062E072E072506BE065E
:1000C000CF06CF06CE07CE07E007E007D707E00749
:1000D000E007E007CE07CE07DC07E007E007DC0714
:1000E000A932D032C833D032C8331C333F33C8337F
:1000F0009633A53300263646002737470028384870
:1001000000293949002A3A4A002B3B4B0126364642
:10011000012737470128384801293949012A3A4A35
:10012000012B3B4B02263646022737470228384828
:1001300000746454007565550076665600796959F7
:10014000007A6A5A007B6B5B0175655501766656CD
:1001500001796959017A6A5A017B6B5B02746454B4
:10016000027565550276665600A4948400A59585AF
:1001700000A6968600A7978700A8988800A9998965
:1001800001A4948401A5958501A6968601A7978769
:1001900001A8988801A9998902796959027A6A5A4D
:1001A000027B6B5B002E3E4E002F3F4F00304050D5
:1001B00000314151003242520033435301AC9C8C18
:1001C000012E3E4E012F3F4F013040500131415131
:1001D000013242520133435302A7978702A89888FD
:1001E000007C6C5C007D6D5D007E6E5E00817161E7
:1001F000008272620083736301AD9D8D017C6C5C33
:10020000017D6D5D017E6E5E0181716101827262B0
:100210000183736302A9998900AC9C8C00AD9D8D0C
:1002200000AE9E8E00AF9F8F00B0A09000B1A19154
:1002300001AE9E8E01AF9F8F01B0A09001B1A19140
:1002400002293949022A3A4A022B3B4B29003A003B
:100250003B003C003D003E003F00400041004200AA
:100260004300440045004C00460035001E001F00BE
:100270002000210022000000230024002500260089
:1002800027002D002E002A002B0014001A00080061
:10029000150017001C0018000C00120013002F009E
:1002A000300031004B00390004001600070009003F
:1002B0000A002A000B000D000E000F00330034006E
:1002C00028004E00E1001D001B000600190005007B
:1002D000280011001000360037003800E5005200F9
:1002E0000000E000E300E20000002C00E000E1007C
:1002F0002C000000E6000151E400500051004F00C6
:10030000005C01000100010001000100010001008A
:100310000100B200B300AF00B100145CDF5C01006B
:1003200001000100010001000100000001000100C6
:10033000010001000100010001005300C35CC45C26
:10034000CA5CC65C0100010001000100010001005F
:1003500001000100010001004A000100CD5CCB5CFE
:10036000CC5C01000100010001000100010001005E
:100370000100010001004D00010001000100010029
:100380000100010001000100010001000100010065
:10039000A800A90000000100010001000000010008
:1003A000010001000100000001000100AE00AC00EE
:1003B000AA00AB00000101010101010101010202DB
:1003C0000202020202020203030303030303030403
:1003D00004040404040405050505050606060606CE
:1003E000070707070708080808090909090A0A0A88
:1003F0000B0B0B0C0C0C0D0D0D0E0E0E0F0F0F102A
:1004000010111111121213131414151516161717B3
:10041000181819191A1A1B1B1C1D1D1E1E1F20201F
:10042000212222232424252626272829292A2B2C69
:100430002D2D2E2F30313232333435363738393A8C
:100440003B3C3D3E3F404142434445464748494A84
:100450004C4D4E4F50515354555658595A5B5D5E52
:100460005F616264656668696B6C6D6F70727375ED
:1004700077787A7B7D7E8082838587888A8C8E8F51
:1004800091939596989A9C9EA0A2A3A5A7A9ABAD7F
:10049000AFB1B3B5B7BABCBEC0C2C4C6C9CBCDCF6D
:1004A000D1D4D6D8DBDDDFE2E4E7E9EBEEF0F3F51B
:1004B000F8FAFDFF18034B004E00490047004800C2
:1004C00054005F0050004C005500530000000E0324
:1004D00058002D0042004F00570053000000040355
:1004E000090409023B00020100A0FA09040000010E
:1004F00003010100092111010001224000070581CB
:100500000308000A09040100010300000009211189
:1005100001000122B6000705820320000A12010033
:100520000200000008EDFE27120100010200010593
:10053000010902A10185020901A10005091901298A
:10054000081500250195087501810205010930098A
:10055000311581257F950275088106093815812599
:100560007F950175088106050C0A38021581257FE3
:10057000950175088106C0C005010980A1018503A8
:1005800019012AB700150126B700950175108100E1
:10059000C0050C0901A101850419012AA002150159
:1005A00026A002950175108100C005010906A10170
:1005B0008505050719E029E715002501950875014E
:1005C00081020507190029EF1500250195F0750135
:1005D000810205081901290595057501910295010A
:1005E00075039101C005010906A101050719E0295C
:1005F000E7150025019508750181029501750881AF
:10060000010507190029FF150026FF00950675084A
:1006100081000508190129059505750191029501CB
:1006200075039101C00011241FBECFEFDAE0DEBFD9
:10063000CDBF04B603FE27C080918D0690918E0633
:10064000A0918F06B09190068730904BA740B04B99
:10065000D1F410928D0610928E0610928F06109291
:10066000900614BE84B7877F84BF0FB6F894A89510
:1006700080916000886180936000109260000FBEDE
:10068000E0E0F8E3099513E0A0E0B1E0E6EAFAE67D
:1006900002C005900D92A630B107D9F726E0A6E07A
:1006A000B3E001C01D92AD38B207E1F70E942C13F0
:1006B0000C9451350C9400000E94002B81FF07C060
:1006C0002FEF4FEF6FEF8CE290E00C94201A08951B
:1006D00081E0089581E008950C946A0308950C94D4
:1006E0006E031F93CF93DF9300D000D01F92CDB73E
:1006F000DEB749835A836B833091080389819A81DD
:10070000311114C0662359F0222349F00E94720966
:10071000182F682F89819A810E941B0903C00E94AB
:100720004609182F69817A81812F04C00E947209BD
:1007300069817A810F900F900F900F900F90DF9149
:10074000CF911F910C949C10FC01262F4081518168
:100750006281738184810C94710381E00895CF9349
:10076000DF93EC0160E00E94A403BE01DF91CF9112
:100770000C946F030E94A5110E9434040E94E2238E
:100780000C94E2110C94DE1108950E94BC070E94A3
:10079000C4032FEF84E39CE0215080409040E1F7B8
:1007A00000C000000C940D2D0F931F93CF93DF9387
:1007B0008C0161E00E94A403EC01B8010E946C036B
:1007C000882309F444C0B801CE010E945C28882324
:1007D000F1F1B801CE010E94AE288823C1F1B80121
:1007E000CE010E94E029882391F1B801CE010E9438
:1007F0004D27882361F1F8018281882309F1CB35E7
:100800008DE5D807C1F050F4C115FCE5DF0781F094
:10081000CF3DDC45A9F40E94830E19C0CC35EDE52F
:10082000DE0761F0CD35DD4559F40E94140D08C096
:100830000E94C5030CC00E941D0D02C00E94200D25
:10084000C801DF91CF911F910F910C94680380E054
:10085000DF91CF911F910F91089508950C942D046D
:1008600081E008950C9430040895CF93C82F0E941E
:100870002E048C2F0E943204CF910895CF93DF93E2
:10088000CDB7DEB72B970FB6F894DEBF0FBECDBF46
:100890004F83588769877A878B8761110E94430D40
:1008A0009E012F5F3F4F86E0F90111928A95E9F78B
:1008B00085E0FE013796D90101900D928A95E1F706
:1008C00089819A814C815D81452B31F09F3F31F4C4
:1008D00091E08F3F19F403C091E001C090E090FFD8
:1008E00009C049815A816B817C818D819E810E94E2
:1008F000430C05C0C9010E94AD038111F2CF2B96B4
:100900000FB6F894DEBF0FBECDBFDF91CF91089533
:10091000FC01808191810E94B4090895CF938823BE
:1009200009F450C0C82F8CEF8C0F813AD0F46C2F93
:1009300080916002909161020E946D2B882349F0A2
:100940006C2F80916002909161020E94F82B0E94AE
:10095000680D6C2F80916002909161020E94ED2BD6
:100960000CC080E28C0F883058F4C77081E001C061
:10097000880FCA95EAF70E94260DCF910C94680D56
:10098000EBE5EC0FE33040F4F0E0E455FD4F8081FF
:1009900090E0CF910C942B2BE8E5EC0FE73150F46D
:1009A000F0E0EE0FFF1FE258FD4F80819181CF9163
:1009B0000C94412BCD3E30F08C2F0E94B913CF9177
:1009C0000C948B14CF910895882389F19CEF980F94
:1009D000913A40F4682F80916002909161020E94E8
:1009E000F82B0DC090E2980F983058F4877091E082
:1009F00001C0990F8A95EAF7892F0E942C0D0C945B
:100A0000680D9BE5980F933020F480E090E00C9403
:100A10002B2B98E5980F973120F480E090E00C9410
:100A2000412B8D3E20F00E9414140C948B140895D9
:100A30001F93CF93DF93182FEB010E948E04209712
:100A400041F08FE99FE00197F1F700C00000219786
:100A5000F6CF812FDF91CF911F910C94E40489335D
:100A600019F060E070E002C060E570E00C941805D9
:100A7000882321F00E94260D0C94680D0895882388
:100A800021F00E942C0D0C94680D0895CF92DF92F6
:100A9000EF92FF920F931F93CF93DF937C01D62F9A
:100AA000C72FFC011281058102950F700E94FB0C7B
:100AB000882399F0112389F08C2F807F803421F0D6
:100AC00080E28D0F883048F082E00E94B80D0E94CD
:100AD000FB0C91E0D82ED92601C0D12CCC2EC2948B
:100AE0008FE0C8228C2D90E08C30910508F0B6C1C3
:100AF000FC01EA5AFF4F0C9443348C2F807FCF7057
:100B0000882311F0C295C07F112399F0CC2309F4FA
:100B100091C180E28D0F883010F0D11104C08C2F6C
:100B20000E94260D03C08C2F0E94360D0E94680D76
:100B300081C18D2F0E94E404CC2309F48FC180E28F
:100B40008D0F883010F0D11104C08C2F0E942C0D15
:100B500003C08C2F0E943C0D0E94680D7FC18C2F1A
:100B6000807FCF70803211F0C295C07FDD2319F0F5
:100B7000D130C9F022C0112371F0002341F00130BF
:100B800031F40E94490D8C2B0E94510D67C10E94C7
:100B9000490D8C2B1DC0002319F0013009F45EC1F2
:100BA0000E945E0D25C0112321F0063008F056C1C9
:100BB0000EC0053008F052C11BC0112361F00023A4
:100BC00031F0F701858180FF35C18F7085838C2FCF
:100BD0000E94380543C1002359F0D93309F03BC1C5
:100BE000FFEF07EE13E0F15000401040E1F731C194
:100BF0008C2F0E943F0532C18C2F8695869583707D
:100C000019F0813061F02AC1112321F08D2F9C2F22
:100C1000937002C080E090E00E942B2B27C111232B
:100C200021F08D2F9C2F937002C080E090E00E94F5
:100C3000412B1CC18D2F112319F00E94B91302C042
:100C40000E9414140E948B1411C18C2F837009F020
:100C500047C0111107C12D2F229526952770220F0D
:100C6000220F6D2F6F70862F90E0A0E0B0E0022E73
:100C700004C0880F991FAA1FBB1F0A94D2F7D4FF84
:100C800010C04FE050E060E070E004C0440F551F1A
:100C9000661F771F2A95D2F74095509560957095FD
:100CA00003C040E050E0BA01C695C695C3708A0102
:100CB0009B01082B192B2A2B3B2BC901B801C230F1
:100CC00049F058F4C13019F00E943108CBC00E949D
:100CD0001F08C8C00E944308C5C00E941D08C2C0AA
:100CE000112319F08C2F817001C08695882309F497
:100CF000B9C02D2F229526952770220F220F6D2F18
:100D00006F70862F90E0A0E0B0E0022E04C0880F44
:100D1000991FAA1FBB1F0A94D2F7D4FF10C04FE03F
:100D200050E060E070E004C0440F551F661F771F5D
:100D30002A95D2F7409550956095709503C040E094
:100D400050E0BA01C695C695C3708A019B01082B75
:100D5000192B2A2B3B2BC901B801C23049F058F49A
:100D6000C13019F00E94F6087DC00E94E4087AC0E4
:100D70000E94080977C00E94570874C0CF701123E1
:100D800039F08C2F0E947D088D2F0E9438056AC093
:100D90008D2F0E943F058C2F0E949E0863C0D23F7A
:100DA00001F128F4D03F41F0D13FA1F03FC0D33F43
:100DB000F9F0D43F39F13AC0112341F0053008F081
:100DC0004DC08C2F8F710E94C30848C0063008F0B8
:100DD00045C0F7CF112339F08C2F8F710E947D0809
:100DE0003DC01123C9F38C2F8F710E949E0836C01D
:100DF000112329F08C2F8F710E9468082FC00E9448
:100E000063082CC0112349F0CF718C2F0E947D08FC
:100E100063E08C2F0E949D0D21C081E00E94B80DDF
:100E20000230E0F082E00E94B80D18C0112331F0CA
:100E3000002391F28D2F0E948E0410C0002399F29E
:100E4000D93349F41FEF27EE33E0115020403040F2
:100E5000E1F700C000008D2F0E94E40488EF8C0DA4
:100E6000843020F40E94F42A0E943504DD20C9F069
:100E70000E94F70C80FD15C0F70112820E94F10C50
:100E80000E947D08C7010E9472070E94F10CDF9149
:100E9000CF911F910F91FF90EF90DF90CF900C9426
:100EA0009E08DF91CF911F910F91FF90EF90DF90FF
:100EB000CF9008950F931F93CF93DF93EC01688138
:100EC00079818A810E94BF098C010E941A090E94BF
:100ED0000B08B801CE010E944605DF91CF911F910A
:100EE0000F910895CF93DF93EC01988189812B8135
:100EF0003C81232B31F08F3F31F481E09F3F19F487
:100F000003C081E001C080E080FD19C0CE010E94D5
:100F1000D40381110CC00E94FB0C882381F08A81CC
:100F2000882369F082E0DF91CF910C94B80DCE0157
:100F30000E945A07CE01DF91CF910C94AF03DF914D
:100F4000CF91089580E090E00E942B2B80E090E00C
:100F50000E94412B0E94430D0E94460D0E94680D85
:100F60000E94BC150C948B148091600290916102D8
:100F70000E94032C0C94A2070E94330D0C94B4071A
:100F8000E92FE295EF704E2F50E0FA013297EE30E4
:100F9000F105B0F4EE59FF4F0C944334803F91F0CB
:100FA00018F4883E68F40EC0843F51F40BC0883EAC
:100FB00048F0813F29F406C093FB882780F9089503
:100FC00080E0089581E00895FC01808191810E9474
:100FD000B4090E94C0070895CF93DF9300D000D0DA
:100FE0001F92CDB7DEB70F900F900F900F900F901C
:100FF000DF91CF910895CF93DF9300D000D000D040
:10100000CDB7DEB726960FB6F894DEBF0FBECDBFC4
:10101000DF91CF910895089508950C940C080C94D5
:101020000D080E940F086093490370934A03809350
:101030004B0390934C030C94A2070C9411080F934C
:101040001F930091490310914A0320914B03309163
:101050004C03602B712B822B932B1F910F910C94BF
:1010600011080F931F930091490310914A03209197
:101070004B0330914C0360237123822393231F91F0
:101080000F910C9411080F931F9300914903109135
:101090004A0320914B0330914C036027712782272C
:1010A00093271F910F910C9411080C940C080E9427
:1010B00055086093450370934603809347039093CC
:1010C00048030C94A20760E070E0CB010C94570831
:1010D0000F931F9341E050E060E070E08A019B01B4
:1010E00004C0000F111F221F331F8A95D2F7C901B8
:1010F000B8011F910F910C9457080F931F9341E073
:1011000050E060E070E004C0440F551F661F771F79
:101110008A95D2F78091450390914603A0914703A9
:10112000B09148038A019B01082B192B2A2B3B2BDA
:10113000C901B8011F910F910C9457080F931F9389
:1011400041E050E060E070E004C0440F551F661FAE
:10115000771F8A95D2F7409550956095709580914C
:10116000450390914603A0914703B09148038A013B
:101170009B01082319232A233B23C901B8011F918E
:101180000F910C9457080F931F9341E050E060E0DB
:1011900070E004C0440F551F661F771F8A95D2F771
:1011A0008091450390914603A0914703B091480375
:1011B0008A019B01082719272A273B27C901B80163
:1011C0001F910F910C9457080F931F9300914503A3
:1011D000109146032091470330914803602B712BF7
:1011E000822B932B1F910F910C9457080F931F93F1
:1011F0000091450310914603209147033091480325
:1012000060237123822393231F910F910C9457081D
:101210000F931F93009145031091460320914703BC
:101220003091480360277127822793271F910F91E0
:101230000C94570808952FE0929F800D1124E82FF9
:10124000E695E695E695877051E001C0550F8A95C1
:10125000EAF785E0E89FF0011124E75FFC4F20E00A
:1012600030E070E04081CB01022E02C09695879558
:101270000A94E2F7817081958427852384278193DE
:101280002F5F3F4F2530310569F708952FE0929F7A
:10129000800D1124682F669566956695982F977036
:1012A00085E0689FB001112440E050E080E0FB0140
:1012B000E40FF51FE75FFC4F208130E0092E02C0EC
:1012C000369527950A94E2F721703327042E01C042
:1012D000220F0A94EAF7822B4F5F5F4F453051058A
:1012E00031F70895BF92CF92DF92EF92FF920F9362
:1012F0001F93CF93DF938C01C0904503D09046039A
:10130000E0904703F09048038091490390914A038D
:10131000A0914B03B0914C03C82AD92AEA2AFB2A90
:10132000CFE1D0E0D701C6010C2E04C0B695A79539
:10133000979587950A94D2F780FD04C0219790F77E
:10134000B12C07C0BC2EB8018C2F0E94AF100197A2
:10135000A9F38B2DDF91CF911F910F91FF90EF900B
:10136000DF90CF90BF900895CF93DF93EC010E9460
:101370007209BE010E94AF10DF91CF9108951F93B3
:10138000CF93DF93EB0190910803992321F0CB01D8
:101390000E94B40913C0882349F0CB010E9472094E
:1013A000182F682FCE010E941B0904C0CB010E9498
:1013B0004609182FBE01812F0E94AF10DF91CF91F7
:1013C0001F9108951F93CF93DF93C0914D0316E0B3
:1013D00080914E03C81799F0D0E01C9FF0011D9F2B
:1013E000F00D1124E15BFC4F4081518162817381DA
:1013F000848195810E94FB072196C770E9CFDF9118
:10140000CF911F91089540917F0350918003609187
:1014100081037091820380918303909184030C94E3
:10142000FB070F931F93CF93DF93809184038295E3
:101430008F7009F05DC080918103882309F458C042
:1014400080914D0310914E0360917F037091800352
:10145000C0918203D091830391E06F3F09F090E047
:10146000292F06E0811709F443C0209721F07F3F20
:1014700021F030E003C031E001C0322F90E030FDB8
:1014800034C0089FF001099FF00D1124DF01A15B1A
:10149000BC4F11963C911197371327C03C913613DE
:1014A00024C012963C91129731111FC013964D9192
:1014B0005C9114974C1B5D0B483C5105B0F4809136
:1014C00084038F70806180938403EC5AFC4F808189
:1014D0008F70806180838FE793E00E947207DF91B5
:1014E000CF911F910F910C94E20901968770BACFAA
:1014F000DF91CF911F910F9108959F92AF92BF926C
:10150000CF92DF92EF92FF920F931F93CF93DF93CF
:10151000CDB7DEB761970FB6F894DEBF0FBECDBF73
:101520008C0185E0F801DE011D9601900D928A95EF
:10153000E1F7F801E28090917F03609180032091B0
:101540008203309183032115310531F06F3F31F46F
:1015500081E09F3F19F403C081E001C080E0F82FD3
:10156000F1709F2E80FD3FC1F80140815181A38021
:10157000B4808FE7C82E83E0D82EF0908103F50168
:10158000E21BF30BFF2009F4D9C080918403E83CEF
:10159000F10508F095C0282F207F09F052C056139E
:1015A00013C0491311C0FE2CE1100EC08F70806172
:1015B000809384030E94030AC6010E9472078091EF
:1015C0008403F80185834CC1AB2831F05F3F31F4CF
:1015D00081E04F3F19F403C081E001C080E080FD4D
:1015E00003C081E08E2502C080E090E0F82FF1700A
:1015F000FF2E80FF1CC080914D0320914E0336E0EA
:10160000821709F40BC190E0389FF001399FF00D6B
:101610001124E15BFC4F6181561306C060814613C3
:1016200003C06281E61203C001968770E9CFFE2CE9
:10163000EE2009F415C180918403816080938403B6
:1016400054C0561306C0491304C0E11002C0F8018B
:1016500099C0C8010E94E407882361F1EE2051F18E
:1016600020918403822F82958F7090E0029774F00E
:1016700080917F039091800398878F831986BB8622
:10168000AA862C87CE0107960E94720786E0F80191
:10169000AFE7B3E001900D928A95E1F70E94110A3D
:1016A0000E94030A0AC0561711F1C8010E94E407FC
:1016B00081112CC0C8010E947207FF24F394D0C08E
:1016C000282F207F81F77A2DB98AA88A6E2D8989E3
:1016D0000E94EC078FE793E00E94720786E0F60114
:1016E00011928A95E9F70E94030AF12CB9C04913B7
:1016F000DCCFE110DACFF8018583C8010E947207C0
:1017000086E0F60111928A95E9F7AAC0EE2091F2DF
:1017100020918403822F82958F7090E002970CF4C1
:10172000B5CF80917F03909180039A8389831B8238
:10173000BD82AC822E83CE010196A6CFE83CF10596
:1017400008F044C0FE2CEE2009F4B4CF561330C08C
:1017500049132EC02091840320FD21C0822F829541
:101760008F70482F50E041155105C9F0F8012583CD
:101770004F30510541F08F5F982F9295907F822FC7
:101780008F70892B8583C8010E94720786E0F8015B
:10179000AFE7B3E001900D928A95E1F73CC086E097
:1017A000F801AFE7B3E001900D928A95E1F758C0D8
:1017B000C8010E94E407811169CF80918403816090
:1017C00080938403C8010E9472074AC07A2DB98AA7
:1017D000A88A6E2D89890E94EC0786E0F601119295
:1017E0008A95E9F718C0EE2009F464CFC8010E9479
:1017F000E407F82E882309F45DCF86E0F801AFE70F
:10180000B3E001900D928A95E1F78FE793E00E9493
:1018100088040E94110A0E94030A22C04D875E8735
:101820008D859E850E94B409292F22952F70223024
:1018300028F49F7039F0811105C00BC0243028F4C2
:101840009F7049F4805E883020F0C8010E947207C2
:101850009F2CF92C05C0F8019581907F99F7F9CF5D
:101860008F2D61960FB6F894DEBF0FBECDBFDF910E
:10187000CF911F910F91FF90EF90DF90CF90BF908D
:10188000AF909F9008951F93CF93DF93CDB7DEB7AE
:101890002C970FB6F894DEBF0FBECDBF4F8358878D
:1018A00069877A878B879C87CE0107960E947D0A7D
:1018B0008823D1F09F8188852A853B85232B31F0B1
:1018C0008F3F31F481E09F3F19F403C081E001C0F4
:1018D00080E080FD47C04F81588569857A858B857A
:1018E0009C850E94FB073EC086E0FE013796DE0124
:1018F000119601900D928A95E1F7FF81E8856A853E
:101900007B856115710531F0EF3F31F481E0FF3FD8
:1019100019F403C081E001C080E080FD23C0209164
:101920004E0330E0C90101968770992740914D031D
:1019300050E084179507F1F1F983EA837D836C8386
:1019400096E0929FD001939FB00D1124A15BBC4FF4
:10195000FE01319601900D929A95E1F780934E0326
:101960000E94E20916E080914D0390914E03891781
:1019700071F1189FC0011124815B9C4F0E947D0A68
:10198000882329F1E0914D031E9FF0011124E15BB2
:10199000FC4F4081518162817381848195810E94D5
:1019A000FB0780914D0390E0019687709927809303
:1019B0004D03D9CF0E94BC0710924E0310924D03E5
:1019C000EFE7F3E086E0DF011D928A95E9F72C96B8
:1019D0000FB6F894DEBF0FBECDBFDF91CF911F9140
:1019E00008958091850385958595859508958091C5
:1019F00085038770089590918503977081E009F4BD
:101A000080E0089590916C0492FB222720F928171A
:101A100051F080FB92F990936C0480916B0490914B
:101A20006C040C94FF0D089580916C0482FB882750
:101A300080F991E089270C94020D81E00C94020D4D
:101A400080E00C94020D8091A90308959091A90360
:101A5000892B8093A903089580959091A9038923E8
:101A60008093A90308951092A90308959091A80363
:101A7000892B8093A803089580959091A8038923CA
:101A80008093A80308951092A80308951092A703C5
:101A9000089580918603089508950C944C0D0C943C
:101AA0004D0D90916C0492FD08C09091860398179B
:101AB00021F0809386030C944F0D08958091860346
:101AC000882329F01092860380E00C944F0D08952E
:101AD000E0916002F09161028091A9038083E0911E
:101AE0006002F091610290818091A803892B80832C
:101AF000E0916002F091610290818091A703892BAF
:101B0000808380918603882381F0E0916002F091C8
:101B100061029081892B80838091600290916102A3
:101B20000E94572B81110E945E0D8091600290915E
:101B300061020C94032B0C944C0D90916C0492FD5B
:101B400010C098E0899F90011124262B20938503D3
:101B50000E947D08809185038595859585950C94D7
:101B60009B0D0C947D081092850380E00C949B0DD6
:101B7000209185038095822380938503982F977009
:101B800041F430E0482F082E000C550B2417350780
:101B900021F490916C0492FF07C0859585958595F9
:101BA0000E949E080C94B30D08956FEF7FEF80E0C4
:101BB00090E00C94293580E090E00E94F53421E01B
:101BC000893E9E4F09F020E0822F089582E090E048
:101BD0000C94ED3483E090E00C94ED34CF9384E0EA
:101BE00090E00E94ED34C82F82E290E00E94ED3434
:101BF0002C2F30E0A901582BCA01CF910895CF9323
:101C0000C92F682F84E090E00E940B356C2F82E290
:101C100090E0CF910C940B35AB01BC018FE090E0CC
:101C20000C941D35AB01BC0183E190E00C941D3593
:101C300060E070E0CB010C94120E60E070E0CB012C
:101C40000E940C0E0C94180E69EE7EEF80E090E07E
:101C50000E94293560E082E090E00E940B3560E050
:101C600083E090E00E940B351092490310924A03E2
:101C700010924B0310924C0360E084E090E00E94CD
:101C80000B3560E082E290E00E940B3560E085E079
:101C900090E00E940B3560E086E090E00E940B35FA
:101CA0006FEF87E090E00E940B3540E050E0BA0112
:101CB00088E090E00E941D3560E08DE090E00E9499
:101CC0000B3540E050E0BA0188E190E00E941D35FC
:101CD00060E087E190E00E940B3540E050E0BA01FF
:101CE0008CE190E00E941D3560E070E080E290E0C1
:101CF0000E94293540E050E0BA0188E190E00E945E
:101D00001D350C941D0E0C94240E682F8EE090E06F
:101D10000C940B350E94B02C6093BB037093BC03F2
:101D20008093BD039093BE036093B7037093B80391
:101D30008093B9039093BA03089585B7806885BFEF
:101D400085B7806885BF089581E008950C94A40E3E
:101D500008950C94A80E0C94A80E0C94AB0E0C9441
:101D6000A80E0C94AF0E0C94A80E0E949D0E8BE84A
:101D700091E10E94312D0E94B30E0C94B10E0E948D
:101D8000A90E0C94A80E0E949B2C0E9493120C94F6
:101D9000AD0E6F927F928F929F92AF92BF92CF9231
:101DA000DF92EF92FF920F931F93CF93DF93CDB704
:101DB000DEB72A970FB6F894DEBF0FBECDBF0E94E4
:101DC000A61281110E948A0E3BEA832E33E0932EE5
:101DD00000E010E0E02E802F0E94C9115C01F401A8
:101DE000619071904F016826792661147104B1F4F5
:101DF0000F5F1F4F0630110569F78FEF89838A83C4
:101E00001B820E94A42C8160782F9D838C83498142
:101E10005A816B818D810E943E0443C08091BF0333
:101E200081FD0E94D211F12CCC24C394D12CC3018A
:101E30008C219D21892B71F10E94A60EAC20BD2022
:101E40008823A1F0FE82EF8281E0A114B10409F49D
:101E500080E088870E94A42C8160782F9A878987E8
:101E60004E815F8168858A850E943E04000F111FA4
:101E7000F801E555FC4F80819181C826D926D18291
:101E8000C08241E0AB2809F440E06F2D8E2D0E9406
:101E9000BB2007C0F394CC0CDD1CFFE0FF12C7CFC2
:101EA000A7CF0E9421230E94A9140E94F42A909196
:101EB000AA038917D1F00E94F42A8093AA032A96D4
:101EC0000FB6F894DEBF0FBECDBFDF91CF911F914B
:101ED0000F91FF90EF90DF90CF90BF90AF909F90C9
:101EE0008F907F906F900C9435042A960FB6F894DB
:101EF000DEBF0FBECDBFDF91CF911F910F91FF903D
:101F0000EF90DF90CF90BF90AF909F908F907F9099
:101F10006F900895CF93DF930E94B410EC01811568
:101F200021E5920708F045C0811530E5930708F0D8
:101F300094C0883E910528F5803E910508F0F8C0D0
:101F4000883A910570F4853A910508F07CC081309B
:101F5000910509F475C008F4E8C0049708F0E8C0DA
:101F6000E4C08F3B910508F0E0C0C85AD0E0CC0F28
:101F7000DD1FC155DD4F0990D881C02DCE0194647D
:101F8000D8C0811540E2940758F4811551E09507B7
:101F900008F0CEC08D3E910508F4C7C09065C9C059
:101FA000C11580E4D80708F4C0C0DF70CE01906A84
:101FB000C0C0811525E59207A8F4811534E5930783
:101FC00008F095C0811543E5940708F07BC08115A2
:101FD00052E5950708F061C0D82FCC27CE01816F5C
:101FE000906AA7C0C11589E5D807A0F4C11528E5F6
:101FF000D20708F082C0C11536E5D30708F095C0B6
:102000008C2F0E9448118F7190E0D82FCC27CE01E1
:1020100090628FC0C1154AE5D40708F474C0CE01A0
:1020200090568115904208F080C08D2F8F710E94CC
:102030004811DD27D0628F71AE01582BCA0179C0DB
:1020400081E090E076C0C55AD0E0C352DD4F888170
:10205000C82FD0E0CE0190646CC074E0969587954F
:102060007A95E1F7282F23703C2F337081E090E0C0
:1020700002C0880F991F3A95E2F79C68AC01522B79
:102080009A019C2F9F709695969550E2959FE0013E
:102090001124C9018C2B9D2B4CC08370992721E002
:1020A00030E002C0220F331F8A95E2F79C2F9695ED
:1020B000969580E2989FE0011124C22BD32BCE018C
:1020C0009C6837C08370992721E030E002C0220F5E
:1020D000331F8A95E2F79C2F9695969540E2949F40
:1020E000E0011124C22BD32BCE019A6822C0D82F35
:1020F000CC27CE01846F906A1CC0DC2FCC27CE0188
:10210000806F906A16C08C2F8F700E94481194E0E7
:10211000D695C7959A95E1F7CF70D0E0DC2FCC2704
:10212000D0699E01282BC90104C080E090E001C065
:10213000CE01DF91CF9108952AE5829FC00111243D
:10214000FC012FE0729FE00DF11D1124E60FF11D3F
:10215000EE0FFF1FE45BFD4F8591949108950E945F
:102160009C100E948A0F08958238910569F1B0F49D
:102170008133910509F46DC048F48932910509F461
:1021800063C08A32910509F469C0089585339105C9
:1021900009F455C089339105B9F00895833E91053E
:1021A00069F138F4803E9105B1F0823E910509F164
:1021B0000895863E9105A9F1873E9105B9F1843EC7
:1021C000910509F064C023C020916B0420FD4FC02D
:1021D00021FD4DC0089580916B0480FD44C0809125
:1021E0006C0480FF44C080916B0484FD42C083EE88
:1021F0004DC080916B0482FF38C0F5CF80916B0495
:1022000082FD33C080916C0480FD31C0ECCF8091A1
:102210006C0481FF32C080916B0484FD2AC087EE7C
:1022200035C080916B0483FF26C0F5CF80916B048D
:1022300083FD21C080916C0481FD1FC0ECCF809193
:102240006B0485FD1CC01DC080916B0485FD19C009
:1022500016C080916B0486FD16C017C080916B0478
:1022600086FD13C010C089E311C082EE0FC080EE5E
:102270000DC080E00BC086EE09C084EE07C089E285
:1022800005C085E303C08AE201C081E390E00895C0
:1022900090916B0492FF0DC0282F2871283019F4FB
:1022A000877F846006C0282F2471243011F48B7F2F
:1022B000886093FF0DC0282F2871283119F4877E7C
:1022C000846106C0282F2471243111F48B7E88612B
:1022D00020916C0420FF0DC0382F3871383019F46C
:1022E000877F816006C0382F3171313011F48E7FC5
:1022F000886021FF0DC0282F2871283119F4877EAE
:10230000816106C0282F2171213111F48E7E8861F0
:1023100094FD877E089580E008950C94D50D0E9469
:10232000A6128FEB9DE50197F1F700C000000E9417
:10233000A61280E00E94C91180FF04C00E948D1186
:102340000C940D2D08950C948F110E94DB0D8111BA
:1023500002C00E94830E0E94E60D8093BF030E947C
:10236000EE0D90936C0480936B040E94A3110E9465
:10237000EA0D682F70E080E090E00E941D086091F7
:1023800045037091460380914703909148030C9454
:102390005508E82FF0E0EE0FFF1FE758FB4F808154
:1023A00091810895089580EA8A95F1F7089500C013
:1023B00008950C94D31108950C94DB110C94DC1146
:1023C0000C94DB110C94E011F894E82FE295EF7077
:1023D000F0E031A1282F2F7081E090E001C0880F3C
:1023E0002A95EAF7982F9095932391A392A1892B90
:1023F00082A3789408950F931F93CF93DF93CFEE2A
:10240000D2E089918F3F11F00E94E41182E0C53F34
:10241000D807B9F7C0EED2E00FEE12E089918F3FF6
:1024200011F00E94E4110C171D07C1F7DF91CF9145
:102430001F910F910895AF92BF92CF92DF92EF92CA
:10244000FF920F931F93CF93DF938C01C62FD0E0A1
:10245000CE0181519D4F6C01DC019C919F3F09F49D
:1024600057C0B62EF894E92FE295EF70F0E081A105
:102470009F7021E030E001C0220F9A95EAF7822B8D
:1024800081A382A12095282322A378940E94D711AA
:10249000E0EEF2E020E030E0E12CF12C41E050E011
:1024A00081918F3FC1F0A82FA295AF70B0E09096B8
:1024B0006C9170E08F70DB0102C0B595A7958A958D
:1024C000E2F7A0FD08C0CA01022E02C0880F991FC2
:1024D0000A94E2F702C080E090E0E82AF92A2F5F30
:1024E0003F4F2F303105E1F6F60180818F3F11F02B
:1024F0000E94E41161E0E114F10409F460E08B2D25
:102500000E94D911CC0FDD1FC00FD11FF982E882C4
:10251000DF91CF911F910F91FF90EF90DF90CF90BF
:10252000BF90AF9008950E94FB11EDE6F4E0A9E79B
:10253000B4E0119211921D921D9284E0E937F807E0
:10254000C1F786E00E94F1120C94BA03FF920F9338
:102550001F93CF93DF93CDB7DEB72C970FB6F894C8
:10256000DEBF0FBECDBF8E010F5F1F4F8CE0F801A5
:1025700011928A95E9F7F12C6F2DC8010E941B1268
:10258000F394F6E0FF12F8CF4CE050E0B8018DE68E
:1025900094E00E94C734FF24F394009709F4F12CCF
:1025A000892B41F08CE0F801ADE6B4E001900D928A
:1025B0008A95E1F72F2D46E069E774E08DE694E017
:1025C0000E94F2120E94C2038F2D2C960FB6F8942F
:1025D000DEBF0FBECDBFDF91CF911F910F91FF9056
:1025E00008950895FF920F931F93CF93DF93F82ED2
:1025F000092F162FD72FC42F222349F081E0809373
:10260000C2030E94A42C9093C1038093C0038091C5
:10261000C2038823D9F08091C0039091C1030E9426
:10262000BC2C039798F0EF2DF02FA12FBD2F80E049
:1026300090E04C2F50E08417950734F421913191AC
:102640002D933D930196F7CF1092C203DF91CF9166
:102650001F910F91FF9008950E94152C0E94A72EA4
:102660000E94C02E0E94D22E0E94BF0EFBCF8091EE
:10267000C90380FF0BC06091670285E0689FB001CD
:10268000112475956795759567952BC081FF09C0D5
:102690006091670285E0689FB00111247595679588
:1026A00020C082FF07C06091670285E0689FB0018B
:1026B000112417C09091C8039923D1F0609166024C
:1026C000961788F72091670285E0289F90011124D2
:1026D000929FA001939F500D112470E0CA010E94A7
:1026E00010346038710540F46115710519F406C0A5
:1026F00065E070E0862F08958FE7089581E00895E2
:102700008091C90380FF08C06091630270E07595F5
:1027100067957595679521C081FF06C0609163023A
:1027200070E07595679519C082FF04C060916302DF
:1027300070E010C09091C703992399F060916202F4
:102740009617A0F780916302899FC001112470E061
:102750000E9410346038710540F46115710519F458
:1027600006C061E070E0862F08958FE7089581E04C
:1027700008958D3E21F40E943713819504C08E3E4A
:1027800029F40E9437138093CD0308958F3E21F4DE
:102790000E943713819504C0803F29F40E943713AB
:1027A0008093CC030895893F19F40E94801305C0DB
:1027B0008A3F31F40E94801381958093CE0308955F
:1027C0008B3F21F40E948013819504C08C3F29F433
:1027D0000E9480138093CF0308959FE0980F983054
:1027E00078F421E030E0A90102C0440F551F9A950A
:1027F000E2F7CA019091CB03892B8093CB03089514
:102800008D3F21F48091C90381600BC08E3F21F47C
:102810008091C903826005C08F3F29F48091C9036C
:1028200084608093C90308958D3E39F49091CD035F
:1028300097FF35C01092CD0359C08E3E29F4909178
:10284000CD031916BCF32BC09091CC038F3E29F415
:1028500097FF25C01092CC0349C0803F19F4191688
:10286000CCF31DC09091CE03893F29F41916BCF416
:102870001092CE033BC08A3F19F497FF10C0F8CFE7
:102880008B3F39F49091CF0397FF09C01092CF038B
:102890002DC08C3F21F49091CF031916BCF39FE01B
:1028A000980F983080F421E030E0A90102C0440F75
:1028B000551F9A95E2F7CA0180959091CB03892321
:1028C0008093CB0313C08D3F21F48091C9038E7F89
:1028D0000BC08E3F21F48091C9038D7F05C08F3FCF
:1028E00029F48091C9038B7F8093C9038091CC0325
:1028F000811106C08091CD03811102C01092C803DE
:102900008091CE03811106C08091CF03811102C056
:102910001092C70308950E94A42C2091CC0321118A
:1029200004C02091CD03222321F09093C60380930D
:10293000C5032091CE03211104C02091CF0322238F
:1029400021F09093C4038093C3038AEC93E00C942A
:102950001D2BEF92FF920F931F93CF93DF9300D025
:1029600000D000D0CDB7DEB786E0EAECF3E0DE01C0
:10297000119601900D928A95E1F7E090CC03F090CA
:10298000CD030091CE031091CF031092CC0310928F
:10299000CD031092CE031092CF03E11003C0FF20AD
:1029A00009F45DC08091C5039091C6030E94BC2CC0
:1029B000AC019091C803992339F02091680230E06E
:1029C0002417350758F04BC0209169028AE0289FF0
:1029D000900111242417350718F041C09F3F19F0CA
:1029E0009F5F9093C803EE2061F00E9437131E147E
:1029F00014F09FEF01C091E0989F902D11249093C7
:102A0000CC03FF2061F00E9437131F1414F09FEFD6
:102A100001C091E0989F902D11249093CD033091A7
:102A2000CC033323E1F02091CD032223C1F045EB09
:102A30003403C0011124992319F09093CC0303C0EF
:102A400081E08093CC0335EB2303C001112499234B
:102A500019F09093CD0303C081E08093CD03011161
:102A600003C0112309F45DC08091C3039091C40396
:102A70000E94BC2CAC019091C703992339F020919E
:102A8000640230E02417350758F04BC020916502EE
:102A90008AE0289F900111242417350718F041C0BF
:102AA0009F3F19F09F5F9093C703002361F00E943E
:102AB0008013101614F09FEF01C091E0989F902DA5
:102AC00011249093CE03112361F00E9480131116FC
:102AD00014F09FEF01C091E0989F902D11249093E6
:102AE000CF033091CE033323E1F02091CF03222393
:102AF000C1F045EB3403C0011124992319F09093E0
:102B0000CE0303C081E08093CE0335EB2303C001E5
:102B10001124992319F09093CF0303C081E080938F
:102B2000CF038091CC0381110BC08091CD03811123
:102B300007C08091CE03811103C08091CF03811122
:102B40000E948B14EB82FC820D831E8386E0FE01C3
:102B50003196AAECB3E001900D928A95E1F72696A2
:102B60000FB6F894DEBF0FBECDBFDF91CF911F919E
:102B70000F91FF90EF900895EAECF3E086E0DF011B
:102B80001D928A95E9F71092C8031092C70310921C
:102B9000C9030895EF92FF920F931F93CF93DF9392
:102BA0008B01682F11110AC0442329F0E82FF0E0AF
:102BB000EC54FC4F6491762F862F75C0212F30E0A6
:102BC000E82FF0E0442321F0EC54FC4FE491F0E0D6
:102BD00046E0049FC0011124CFEFD0E0BE010E9467
:102BE000FC334BEA4603C001479F900D1124800F30
:102BF000911D800F911D982F990F890FAE01421BD7
:102C0000530B4E9FD0014F9FB00D5E9FB00D11240E
:102C10009B2F189FA0011124452F55278E01041BBF
:102C2000150B0E9FA0010F9F500D1E9F500D1124DC
:102C30007E01E81AF108E29E8001E39E100DF29EEB
:102C4000100D1124212F3327C21BD30BCE9F9001CF
:102C5000CF9F300DDE9F300D112462307105A9F039
:102C600048F46115710569F061307105C9F48B2F65
:102C7000752F0DC06430710581F058F06630710514
:102C800079F47E2F8B2F932F0DC0832F7B2F9E2FB8
:102C900009C08E2F7B2F952F05C08E2F732F02C05A
:102CA0007E2F852F692FDF91CF911F910F91FF907C
:102CB000EF90089541E00E94CA15089520E030E0A9
:102CC000869F212D969F200D311D1124C901089545
:102CD000BC018230910508F40895613E8EE17807C9
:102CE00048F49B0195E0369527959A95E1F748E0E1
:102CF000420F01C04FEF91E0242F30E0290F311D2A
:102D000035952795229FF001239FF00DF00D11249A
:102D10006E177F0718F44FEF420F04C02F3F39F0B2
:102D200091E0920F491740F78FEF890F08958FEFC9
:102D30000895482F982F46FD9095E92FEF739F70C7
:102D400046FD9F5FE295EF70EE0FF0E0EB50FD4F18
:102D50002181299F802D212D112482958F7022950C
:102D6000207F822B3081982F930F892F47FD8195EB
:102D700080580895E42FF0E0EE0FFF1FE25AFE4F57
:102D8000408134EE439F412D1124E72FF0E050E0C5
:102D9000445E5F4FDA01A21BB1099D01B7FF03C07A
:102DA00031952195310993E0220F331F9A95E1F770
:102DB000AF01421B530B9A0157FF02C020E030E0E5
:102DC000279F212D1124722F0895E42FF0E0EE0F9C
:102DD000FF1FE25AFE4F408134EE439F412D1124E4
:102DE000E82FF0E050E0445E5F4FDA01A21BB1092A
:102DF0009D01B7FF03C031952195310993E0220F62
:102E0000331F9A95E1F7AF01421B530B9A0157FF0D
:102E100002C020E030E0582F259F212D1124822F61
:102E20000895622F0895E42FF0E0EE0FFF1FE25A9D
:102E3000FE4F6081621B0895E42FF0E0EE0FFF1F4C
:102E4000E15AFE4F6081621B0895A22F50E0FA0103
:102E5000EE0FFF1FE15AFE4F90819B5297FD919517
:102E6000440F551FFA01E25AFE4F3081232F30E004
:102E70002A1B3109290F311D97FD3A95620F0895DC
:102E8000EF920F931F9393E0099F800111241595F2
:102E900007956E2D600F1F910F91EF9008950F937E
:102EA000CF93DF93D72FC82F47FD4195EEE2F0E097
:102EB000CF01841B910947FD9395889FB001899F9D
:102EC000700D700D1124229FC001239F900D900D55
:102ED0001124860F971F0E946816682F660F860FB1
:102EE000682F600F7D2F8C2FDF91CF910F91089568
:102EF0000F931F93522F10E0F801EE0FFF1FE15ABE
:102F0000FE4FE081F0E0BB979F015203D001539F39
:102F1000B00D1124000F111FF801E25AFE4F00817D
:102F200010E00C55110940039001419F300D112410
:102F30002A0F3B1F37FF02C021583F4F220F232F7C
:102F4000221F330B620F1F910F9108950F931F9350
:102F5000522F10E0F801EE0FFF1FE15AFE4FE08103
:102F6000F0E0BB97EE0FFF1F9F015203D001539F6C
:102F7000B00D1124000F111FF801E25AFE4F00811D
:102F800010E00C551109000F111F40039001419FE3
:102F9000300D11242A0F3B1F37FF02C021583F4F2D
:102FA000220F232F221F330B620F1F910F910895C1
:102FB0000F931F9310E0F801EE0FFF1FE25AFE4F30
:102FC00090819C5597FD9195000F111FF801E15AD2
:102FD000FE4FE081F0E0BB97DF01AA0FBB1F8D0120
:102FE0000E0F1F1F2003D001219FB00D1124E8E315
:102FF000F0E0E91BF10997FDF3959F01220F331FC4
:1030000089010E0F1F1F40039001419F300D1124B5
:103010002A0F3B1F37FF02C021583F4F220F232F9B
:10302000221F330B620F1F910F9108950F931F936F
:10303000CF93DF93D62F072F182FC42F822F0E94F4
:103040009916EC2FF0E0EE0FFF1FE25AFE4F908131
:103050009058890F87FD8195880F682F2CE0629F1B
:10306000612D11246D0F702F812FDF91CF911F9152
:103070000F910895E42FF0E0EE0FFF1FE25AFE4F8C
:103080009081921B97FD9195292F38E1239F212D47
:103090001124620F08954095282F429F412D11243D
:1030A000842F089522E8241B08F420E0620F08957D
:1030B000EF92FF920F93970195E0099F200D311D2C
:1030C00011242F3F310519F010F02FEF30E020953B
:1030D000382F320F08F43FEF832F0F91FF90EF90BE
:1030E0000895EF92FF920F93E00EF11CF90137FF64
:1030F00003C0F195E195F10924E0EE0FFF1F2A9539
:10310000E1F7EF3FF10519F014F0EFEFF0E09A016D
:1031100057FF03C031952195310994E0220F331FE9
:103120009A95E1F72E173F070CF4F901EE0DFF1DFC
:10313000EF3FF10519F010F0EFEFF0E02E2F2095A2
:10314000382F320F08F43FEF832F0F91FF90EF904D
:103150000895EF92FF920F93972F093438F4B70137
:10316000601B71096F3F710519F010F06FEF70E08F
:10317000485F5F4F4131510540F0A901485F5F4F03
:103180004131510510F06FEF70E06095482F460F08
:1031900008F44FEF842F37FF02C02D5F3F4F359566
:1031A00027953595279560918604620F792F0F91A9
:1031B000FF90EF900895EF92FF920F939701201BDD
:1031C00031092F3F310519F010F02FEF30E0322F89
:1031D0003095482F430F08F44FEF842F620F0F9163
:1031E000FF90EF900895EF92FF920F939701201BAD
:1031F00031092F3F310519F010F02FEF30E0209505
:10320000382F320F08F43FEF832F0F91FF90EF908C
:103210000895FC019B01009721F477FF2BC080E803
:103220000895AC0197FF04C044275527481B590B4C
:10323000B901640F751F37FD0CC0241B350BC90184
:10324000A5E0880F991FAA95E1F70E94103480E24B
:103250000CC0CB0165E0880F991F6A95E1F7BA01B0
:10326000621B730B0E94103480E6861BF7FF03C0BD
:103270008195089580E00895FF920F931F93CF9357
:10328000DF93F62E172FD82FC901C72FC01BBA0105
:103290000E940919982F990F890F7C2F781B719F15
:1032A000712D11246F2D8D2FDF91CF911F910F91D3
:1032B000FF900895FF920F931F93CF93DF93F62E05
:1032C000D72F182FC901C12FC01BBA010E9409199D
:1032D000982F990F890FC81B2C2F219F212D112466
:1032E000822F6F2D7D2FDF91CF911F910F91FF9036
:1032F0000895EF920F931F93CF93DF93D62F172F3D
:10330000C82FC9010E19070FBA010E940919702FA1
:10331000781B719F712D11246D2F8C2FDF91CF9110
:103320001F910F91EF900895EF920F931F93CF93FA
:10333000DF93D62FC72F182FC9010E19010FBA011D
:103340000E940919081B202F219F212D1124822F53
:103350006D2F7C2FDF91CF911F910F91EF900895EA
:103360000F93CF93DF93D72FC82FC901BA010E94C3
:103370000919682F600F7D2F8C2FDF91CF910F914E
:103380000895EF920F93CF93DF93D72FC82FC901E2
:103390000E19BA010E940919602F681B7D2F8C2F0E
:1033A000DF91CF910F91EF9008950E945A160895E2
:1033B00046E050E06CE170E085E894E00C94DD3488
:1033C00046E050E06CE170E085E894E00C94FB345A
:1033D000E5E8F4E085E3808380917B0290917C02B4
:1033E000A0917D0281839283A3838FE784838FEFF3
:1033F00085830C94E01980E008950F931F93CF9379
:10340000DF93C82FD62F8A010E94FB199FE0C99F26
:10341000F0011124EC5FFE4FED0FF11D90819F3FF5
:1034200029F0F801E80FF11D90838F5FDF91CF91B4
:103430001F910F910895E0910303F0910403099403
:10344000E091FF02F091000309944F925F926F9216
:103450007F928F929F92AF92BF92CF92DF92EF9224
:103460000F931F93CF93DF932C013B01FC01C0818D
:1034700082E1C89FC02D1124D2E1DC0FD73508F0BE
:10348000D6E560918904669580918B0490918C04B7
:103490000E945E16182FCD1708F044C08C2E912C78
:1034A000F401E65FFD4F9081F20181818923C1F132
:1034B000F401EE0FFF1FE25AFE4FC080D12CFCE555
:1034C000CF1AD108F401EE0FFF1FE15AFE4FA08082
:1034D000B12C8BE2A81AB108CC9C9001CD9C300D88
:1034E000300D1124AA9CC001AB9C900D900D1124AD
:1034F000820F931F0E946816082F609186047091B6
:10350000870480918804E12E9501A601F3010995B5
:103510000E94D519462F282F672FC4010E94201A18
:10352000CF5FB9CF81E0D63508F080E0DF91CF9151
:103530001F910F91EF90DF90CF90BF90AF909F9031
:103540008F907F906F905F904F90089569E779E139
:103550000C94251A64E979E10C94251A60E477E16A
:103560000C94251A61EC79E10C94251AAF92BF9264
:10357000CF92DF92EF92FF920F931F93CF93DF933F
:103580006C015B01FC01C08182E1C89FC02D112448
:10359000D2E1DC0FD73508F0D6E560918904669555
:1035A00080918B0490918C040E945E16182FCD1789
:1035B00078F5EC2EF12CF701E65FFD4F9081F601D6
:1035C0008181892319F1F701EE0FFF1FE15AFE4FA8
:1035D000208130E02B523109F701EE0FFF1FE25A34
:1035E000FE4F408150E04C55510960918604709126
:1035F000870480918804012FF50109950E94D5194F
:10360000462F282F672FC7010E94201ACF5FCFCFE8
:1036100081E0D63508F080E0DF91CF911F910F91C6
:10362000FF90EF90DF90CF90BF90AF9008956CE344
:1036300079E10C94B61A6AE579E10C94B61A6FE454
:1036400077E10C94B61A60EB79E10C94B61ABF924C
:10365000CF92DF92EF92FF920F931F93CF93DF935E
:103660008C017B01FC01C08182E1C89FC02D112427
:10367000D2E1DC0FD73508F0D6E560918904669574
:10368000669521E0620F08F46FEF80918B049091B2
:103690008C040E945E16B82ECD17F0F4CC2ED12CDF
:1036A000F601E65FFD4F9081F8018181892391F059
:1036B0006091860470918704809188042B2D4C2F93
:1036C000F70109950E94D519462F282F672FC601AB
:1036D0000E94201ACF5FE0CF81E0D63508F080E06D
:1036E000DF91CF911F910F91FF90EF90DF90CF90DE
:1036F000BF9008956AEB76E10C94271B65EE76E1A6
:103700000C94271B61E177E10C94271B63E177E1BF
:103710000C94271B6CE177E10C94271B65E277E1A1
:103720000C94271B66E178E10C94271B6AE378E18F
:103730000C94271B7F928F929F92AF92BF92CF9251
:10374000DF92EF92FF920F931F93CF93DF936C0161
:103750005B01FC01C08182E1C89FC02D1124D2E130
:10376000DC0FD73508F0D6E560918904669566953B
:1037700080918B0490918C040E945E16182F80E437
:10378000810F0E94991690E8F92EF80E812F0E9461
:10379000991620E8722E780ECD1700F58C2E912CFC
:1037A000F401E65FFD4F9081F60181818923A1F04C
:1037B000609186047091870480918804E12E0C2F1B
:1037C000272D4F2DF50109950E94D519462F282F39
:1037D000672FC4010E94201ACF5FDECF81E0D6356B
:1037E00008F080E0DF91CF911F910F91FF90EF9053
:1037F000DF90CF90BF90AF909F908F907F90089573
:1038000068E777E10C949A1B66EA77E10C949A1BBF
:1038100068ED77E10C949A1BAF92BF92CF92DF9242
:10382000EF92FF920F931F93CF93DF938C017B0155
:10383000FC01C08182E1C89FC02D1124D2E1DC0FC0
:10384000D73508F0D6E52091890431E0230F08F43C
:103850002FEF30E040E050E06FEF7FEF80E090E04E
:103860000E9424346901CD1708F041C0AC2EB12C60
:10387000F501E65FFD4F9081F80181818923A9F16F
:1038800090918F04915097FD15C0292F092E000C9F
:10389000330BF901E157FB4F8189C813F3CF220F96
:1038A000331FF901E157FB4F218D328D2C153D055A
:1038B00048F701C096016091890441E0640F08F463
:1038C0006FEFC9010E945E16AC0160918604709191
:1038D000870480918804F70109950E94D519462F25
:1038E000282F672FC5010E94201ACF5FBCCF81E02F
:1038F000D63508F080E0DF91CF911F910F91FF90B6
:10390000EF90DF90CF90BF90AF9008956BE478E197
:103910000C940C1C62E578E10C940C1C2F923F92E5
:103920004F925F926F927F928F929F92AF92BF92CF
:10393000CF92DF92EF92FF920F931F93CF93DF937B
:10394000CDB7DEB729970FB6F894DEBF0FBECDBF57
:103950008B834B013A01DB011C9182E1189F102DF2
:103960001124B2E1B10FB983B73510F0E6E5E98370
:10397000F0918F04FA838981181708F07FC0A12E77
:10398000B12CF501E65FFD4F9081D40111968C9129
:10399000892309F471C020908604309087044B80FD
:1039A000512CC501880F991FFC01E25AFE4FFD837F
:1039B000EC83C501880F991F9C01215A3E4F3F831C
:1039C0002E83FA814F1608F047C0E42CF12CAC810D
:1039D000BD81BC91EB2FF0E0F987E887F701E15753
:1039E000FB4F818128853985281B31093987288734
:1039F000AE81BF81CC90D12C8185C81AD108F90144
:103A0000EE9F9001EF9F300D300D1124CC9CC00132
:103A1000CD9C900D900D1124820F931F0E9468166B
:103A2000082F6091890421E0620F08F46FEFF7011D
:103A3000EE0FFF1FE157FB4F818D928D0E945E16A6
:103A40007C01960148855985B101852DF3010995C1
:103A50001B014394582EB5CF20918804352D329FF9
:103A6000312D1124832FB1010E94D519462F282F03
:103A7000672FC5010E94201A1F5F7DCF81E09981C9
:103A8000963508F080E029960FB6F894DEBF0FBE99
:103A9000CDBFDF91CF911F910F91FF90EF90DF90FD
:103AA000CF90BF90AF909F908F907F906F905F90DE
:103AB0004F903F902F90089520918F0431E0231B69
:103AC00008F420E048E558E1BC01822F0C948E1CDC
:103AD00048E558E1BC0180E00C948E1C20918F04D5
:103AE00031E0231B08F420E041E758E1BC01822FBC
:103AF0000C948E1C41E758E1BC0180E00C948E1CB4
:103B000020918F0431E0231B08F420E049EA58E1BA
:103B1000BC01822F0C948E1C49EA58E1BC0180E064
:103B20000C948E1C20918F0431E0231B08F420E0BC
:103B30004BED58E1BC01822F0C948E1C4BED58E1EB
:103B4000BC0180E00C948E1C20918F0431E0231B7B
:103B500008F420E043EF58E1BC01822F0C948E1C46
:103B600043EF58E1BC0180E00C948E1CDF92EF9291
:103B7000FF920F931F93CF93DF938C01DC018C9105
:103B8000C2E18C9FC02D1124D2E1DC0FD73508F0A3
:103B9000D6E56091860470918704809188040E9424
:103BA000D519F62EE72ED82ECD1798F4EC2FF0E08D
:103BB000DF01A65FBD4F8C91D80111969C9198238F
:103BC00031F02D2D4F2D6E2DCF010E94201ACF5F89
:103BD000EBCF81E0D63508F080E0DF91CF911F91E7
:103BE0000F91FF90EF90DF900895AF92BF92CF9228
:103BF000DF92EF92FF920F931F93CF93DF938C018D
:103C0000FC01C08182E1C89FC02D1124D2E1DC0FEC
:103C1000D73508F0D6E5E0908704F0908804D0907E
:103C200086046D2D7E2D8F2D0E94D519C62EB72EA0
:103C3000A82E609189046D0D7E2D8F2D0E94D519BF
:103C4000F62EE72ED82ECD17B8F48C2F90E0FC017D
:103C5000E65FFD4F3081F8012181232359F030FFC9
:103C600004C02D2D4F2D6E2D03C02A2D4C2D6B2DF4
:103C70000E94201ACF5FE7CF81E0D63508F080E0C0
:103C8000DF91CF911F910F91FF90EF90DF90CF9038
:103C9000BF90AF900895BF92CF92DF92EF92FF92C4
:103CA0000F931F93CF93DF936C01FC01C08182E1DE
:103CB000C89FC02D1124D2E1DC0FD73508F0D6E51E
:103CC00000918704B09088042091890410E4129F29
:103CD000112D1124CD1718F5EC2EF12CF701E65F0C
:103CE000FD4F9081F60181818923B9F0F701EE0F34
:103CF000FF1FE15AFE4F808182958F70609186048C
:103D0000819F600D1124702F8B2D0E94D519462F95
:103D1000282F672FC7010E94201ACF5FDBCF81E0D9
:103D2000D63508F080E0DF91CF911F910F91FF9081
:103D3000EF90DF90CF90BF900895BF92CF92DF9227
:103D4000EF92FF920F931F93CF93DF937C01FC01BF
:103D5000C08182E1C89FC02D1124D2E1DC0FD7358C
:103D600008F0D6E5C0908704B090880420918904BB
:103D700030E4D32E3D2D329F312D1124D32ECD177B
:103D800038F50C2F10E0F801E65FFD4F9081F70148
:103D900081818923D9F0F801EE0FFF1FE25AFE4F0F
:103DA0006081D69EB001112495E0759567959A952E
:103DB000E1F780918604680F7C2D8B2D0E94D51928
:103DC000462F282F672FC8010E94201ACF5FD7CF18
:103DD00081E0D63508F080E0DF91CF911F910F91FF
:103DE000FF90EF90DF90CF90BF900895DF92EF9219
:103DF000FF920F931F93CF93DF938C01DC01CC9143
:103E000082E1C89FC02D1124D2E1DC0FD73508F024
:103E1000D6E5E0908604F0908704D0908804609105
:103E2000890466956695669580918B0490918C04C3
:103E30000E945E160E949916805887FD8195880F12
:103E4000282F3D2D239F212D1124822FB7010E9461
:103E5000D519F62EE72ED82ECD1798F4EC2FF0E0DA
:103E6000DF01A65FBD4F8C91D80111969C919823DC
:103E700031F02D2D4F2D6E2DCF010E94201ACF5FD6
:103E8000EBCF81E0D63508F080E0DF91CF911F9134
:103E90000F91FF90EF90DF900895DF92EF92FF92E5
:103EA0000F931F93CF93DF93EC01FC01E65FFD4F6F
:103EB0009081692381F1D09087040091880410914A
:103EC0008604E12EF12C0E94B734282FC7018C54B0
:103ED0009F4F68E671E00E9410348E199F0997FD8C
:103EE000039695958795959587952370612F289FC3
:103EF000600D11247D2D802F0E94D519462F282F6B
:103F0000672FCE01DF91CF911F910F91FF90EF901E
:103F1000DF900C94201ADF91CF911F910F91FF90A9
:103F2000EF90DF900895CF92DF92FF920F931F934F
:103F3000CF93DF938C01FC01C281C1111DC0609140
:103F4000890420E1620F08F46FEF80918B04909157
:103F50008C040E945E166AE070E00E94FC33892B9C
:103F600059F50E94B73466E570E00E941034F801FC
:103F700061810E944D1F20C0FC018081C2E18C9FA5
:103F8000C02D112492E1F92EFC0EF6E5FF1510F478
:103F900086E5F82ED0E0CF2CD12CCC15DD053CF4F5
:103FA000F8016181CE010E944D1F2196F6CFC1E03C
:103FB000F5E5FF1508F4C0E08C2FDF91CF911F913C
:103FC0000F91FF90DF90CF9008951F93CF93DF93D1
:103FD000FC01E65FFD4F20816223D1F0EC010E94DD
:103FE000B734182F0E94B7348F77782F20E8720FDC
:103FF00008F47FEF612F809188040E94D519462F25
:10400000282F672FCE01DF91CF911F910C94201A9A
:10401000DF91CF911F910895CF92DF92FF920F937E
:104020001F93CF93DF938C01FC01C281C1111DC08E
:104030006091890420E1620F08F46FEF80918B0496
:1040400090918C040E945E1665E070E00E94FC3343
:10405000892B59F50E94B73466E570E00E94103450
:10406000F80161810E94E51F20C0FC018081C2E14E
:104070008C9FC02D112492E1F92EFC0EF6E5FF1560
:1040800010F486E5F82ED0E0CF2CD12CCC15DD0530
:104090003CF4F8016181CE010E94E51F2196F6CF24
:1040A000C1E0F5E5FF1508F4C0E08C2FDF91CF915A
:1040B0001F910F91FF90DF90CF900895DF92EF92C4
:1040C000FF920F931F93CF93DF938C01DC01CC9170
:1040D00082E1C89FC02D1124D2E1DC0FD73508F052
:1040E000D6E5E0908704F0908804D0908604609133
:1040F000890466956695669580918B0490918C04F1
:104100000E945E160E949916805887FD8195880F3F
:10411000682F2CE0629F612D11246D0D7E2D8F2D57
:104120000E945A16F62EE72ED82ECD1798F4EC2FB3
:10413000F0E0DF01A65FBD4F8C91D80111969C91F4
:10414000982331F02D2D4F2D6E2DCF010E94201A76
:10415000CF5FEBCF81E0D63508F080E0DF91CF91E3
:104160001F910F91FF90EF90DF900895E091010370
:10417000F09102030994CF92DF92FF920F931F9365
:10418000CF93DF93CDB7DEB728970FB6F894DEBF95
:104190000FBECDBF182F062FF42E0E94A40E882329
:1041A00009F46FC0FF2049F0AE014F5F5F4F602FF1
:1041B000812F0E94FD19F82E01C0F12C0F2D10E067
:1041C0008091D0039801280F311D293031056CF101
:1041D00088E090E06C01C01AD10AB8016F527C4FA0
:1041E000A60181ED93E00E94D434B80167527C4F60
:1041F000A60189ED93E00E94D434A601440F551F17
:10420000B801660F771F67517C4F89EE93E00E94DB
:10421000D434B8016F517C4FA60181EE93E00E9427
:10422000D43488E08F198093D0031091D003DE013D
:10423000119640E0842F810FF41609F190E05D9112
:10424000252F30E0BC0160537C4FF901EE0FFF1FBA
:10425000E25AFE4F0081FB010183220F331FF90157
:10426000E15AFE4F2081FB012187518B880F991F56
:10427000FC01E053FC4F128E118E4F5FDBCF809319
:10428000D00328960FB6F894DEBF0FBECDBFDF91E6
:10429000CF911F910F91FF90DF90CF900895809163
:1042A0008B0490918C04A0918D04B0918E0488278A
:1042B0009C70AA27BB272AE0B695A7959795879566
:1042C0002A95D1F782309105A105B10571F08330AF
:1042D0009105A105B10569F040E00197A105B1057F
:1042E00011F060E008C064E102C044E160E080E0F9
:1042F00003C044E164E184E10C94B620CF93C82F5D
:1043000080916E028C130DC020918504237030E0E3
:1043100040916F0250E081E02417350719F480E0E6
:1043200001C081E0817080936D0280918A04909138
:104330006C02981739F080936C0240E060E080E0F6
:104340000E94B620C43111F58BE692E00E94001C59
:1043500009C0C53008F04FC0C13061F58BE692E06E
:104360000E94B61D90916B029F5F90936B0281112A
:1043700044C182E080936A0280916D0281113DC147
:10438000C1113BC183E080936A0237C1C53108F097
:104390009BC0C93029F48BE692E00E941B1BE2CF40
:1043A000CA3008F044C0C430A1F68BE692E00E9407
:1043B0009D1ED8CFC13058F480916D02882329F01A
:1043C00040E060E080E00E94B62080E0CBCFC230C9
:1043D00029F48BE692E00E94F51DC4CFC33029F486
:1043E0008BE692E00E944B1EBDCF80916B028F5FE7
:1043F00080936B02BECFC63029F48BE692E00E9418
:104400007A1BB0CFC63028F48BE692E00E94F61EED
:10441000A9CFC73029F48BE692E00E947E1BA2CF81
:10442000C83019F78BE692E00E94171B9BCFCE3065
:1044300029F48BE692E00E948A1B94CFCF30E8F4F7
:10444000CB3029F48BE692E00E94AA1A8BCFCB30B6
:1044500028F48BE692E00E94A61A84CFCC3029F48F
:104460008BE692E00E94821B7DCFCD3009F0BDCF5C
:104470008BE692E00E94861B75CFC13129F48BE652
:1044800092E00E941F1B6ECFC23178F4CF3029F426
:104490008BE692E00E948E1B65CFC03109F0A5CF5C
:1044A0008BE692E00E94AE1A5DCFC23129F48BE612
:1044B00092E00E94231B56CFC33109F096CF8BE6C2
:1044C00092E00E94B21A4ECFCE3129F48BE692E0F0
:1044D0000E945C1D47CFCF3108F043C0C93129F499
:1044E0008BE692E00E945E203DCFCA31E8F4C631EF
:1044F00029F48BE692E00E94081C34CFC63128F4E0
:104500008BE692E00E94041C2DCFC73129F48BE684
:1045100092E00E94931F26CFC83109F066CF8BE648
:1045200092E00E940C201ECFCB3129F48BE692E062
:104530000E94961B17CFCB3128F48BE692E00E94A5
:10454000921B10CFCC3129F48BE692E00E94861C9E
:1045500009CFCD3109F049CF8BE692E00E948A1C49
:1045600001CFC33229F48BE692E00E948C1DFACE73
:10457000C432E8F4C03229F48BE692E00E946E1D4A
:10458000F1CEC03228F48BE692E00E94681DEACE9C
:10459000C13229F48BE692E00E947A1DE3CEC2324A
:1045A00009F023CF8BE692E00E94801DDBCEC6325D
:1045B00029F48BE692E00E94A41DD4CEC73278F491
:1045C000C43229F48BE692E00E94921DCBCEC53214
:1045D00009F00BCF8BE692E00E949E1DC3CEC7323E
:1045E00029F48BE692E00E94B01DBCCECF3F09F0CB
:1045F000FCCE0E944F2182E0C6CECF91089508954F
:104600000C94FF220E9400230C945C0308950C94E8
:104610000623CF93DF93FC01C081C15082E1C89F84
:10462000C02D1124D2E1DC0FD73508F0D6E56D2F6F
:104630008C2F0E9407236D2F8C2FDF91CF910C942C
:1046400006234F925F926F927F928F929F92AF92CA
:10465000BF92CF92DF92EF92FF92CF936091F903D6
:104660007091FA038091FB039091FC030E94CB2C84
:104670006B017C010E94B02C4B015C016093F9033B
:104680007093FA038093FB039093FC03A091D003F3
:10469000E0EDF3E08A2F90E04FEF5FEF60E070E035
:1046A0004C195D096E097F09A91799F0218D328D8A
:1046B0002901612C712C441555056605770510F408
:1046C000815004C02C0D3D1D328F218F9F5F32968B
:1046D000EBCF8093D0038091FE03811108C0C0917D
:1046E00085048C2F837019F0C695C69501C0C0E073
:1046F00080916A028130D9F028F0823081F18330D4
:10470000D9F152C010926B0280928B0490928C046B
:10471000A0928D04B0928E0489E2E0EDF3E0AFE860
:10472000B4E001900D928A95E1F781E022C08C2FD0
:104730000E947E21CC23C1F10E9402238BE692E0ED
:10474000CF91FF90EF90DF90CF90BF90AF909F9070
:104750008F907F906F905F904F900C940923C0933F
:104760006E0280918504837080936F020E941B1AF1
:1047700083E080936A0218C08091FD0381110E943A
:10478000E0191092FD0360918B0470918C0480916C
:104790008D0490918E040E94CB2C603171058105AF
:1047A000910510F010926A02CF91FF90EF90DF9088
:1047B000CF90BF90AF909F908F907F906F905F90C1
:1047C0004F900895E091FD02F091FE02099510923C
:1047D0008F04E8EAF4E08FEF9FEF8193919324E058
:1047E000E83BF207D1F71092D003E9EEF3E08FEF48
:1047F0009FEF8193919323E0E93FF207D1F70E9465
:10480000DB0D811104C00E94830E0E94E8190E94F2
:10481000D819809185048C7F11F40C94E8190895BF
:10482000CF93C82F882391F08091FE0381110EC091
:104830000E947E2110926E02809185048370809385
:104840006F020E941B1A83E080936A02C093FE03EA
:10485000CF910895E5E8F4E0208191E092279083DC
:1048600010926A029091FD03892B8093FD030895B5
:1048700081E00C942A24909185049370A1F0811119
:1048800002C0946007C0883210F09C6903C0880F92
:10489000880F982B9093850410926A028091FD03F3
:1048A000682B6093FD03089561E00C943B24682F0E
:1048B00090918504969596959F5F983210F4892F74
:1048C00001C081E00C943B2481E00C945724682FB4
:1048D0009091850496959695915011F0892F01C07D
:1048E00087E20C943B2481E00C946724909185042A
:1048F000937071F08093860460938704493C08F0BC
:1049000048EC409388048091FD03282B2093FD03FD
:104910000895A5E8B4E01196EC911197F0E0282FE6
:1049200013964C91139712966C91CF0108960C94A4
:10493000762481E00C948924A5E8B4E01196EC91EA
:104940001197F0E0282F13964C91139712966C91C3
:10495000CF0108970C94762481E00C949C24E5E820
:10496000F4E0628120E1620F08F46FEF9181282F5B
:104970004381892F90E00C94762481E00C94AF243D
:10498000E5E8F4E0628120E1621B08F460E09181D7
:10499000282F4381892F90E00C94762481E00C9499
:1049A000C024E5E8F4E0438120E1420F08F44FEF32
:1049B0009181282F6281892F90E00C94762481E0E8
:1049C0000C94D124E5E8F4E0438120E1421B08F493
:1049D00040E09181282F6281892F90E00C94762409
:1049E00081E00C94E224809389048091FD03682B7C
:1049F0006093FD0308952091890430E1230F08F4AA
:104A00002FEF682F822F0C94F32481E00C94FB2469
:104A10002091890430E1231B08F420E0682F822FC5
:104A20000C94F32481E00C94082560E084E70E9454
:104A3000FD2661E086E70E94FD2662E085E70C9492
:104A4000FD26CF930E94112A84E70E94752586E7F0
:104A50000E94752585E70E947525C0E021E041E0B0
:104A600061E08C2F0E941226CF5FC635B9F760E057
:104A700084E70E94152761E086E70E94152762E01F
:104A800085E7CF910C941527E8E6F6E06083418333
:104A900024E630E042E050E0BF01880F0C94C82AC1
:104AA0000F931F93CF93DF93082F000FEB0114E2B6
:104AB00010936806E9E6F6E0DE018D91819386E0C9
:104AC000E937F807D1F724E630E041E150E068E645
:104AD00076E0802F0E94C82A105F6096143B41F751
:104AE000DF91CF911F910F910895CF93DF93C82F3E
:104AF0004BE06DEF0E94442540E06AE08C2F0E945D
:104B000044258FE39CE90197F1F700C0000040E0E5
:104B100060E08C2F0E94442540E061E08C2F0E94D1
:104B2000442540E066E08C2F0E94442540E06DEF74
:104B30008C2F0E944425D0E040E06D2F8C2F0E94E6
:104B40004425DF5FD231C1F740E06D2F8C2F0E94EA
:104B50004425DF5FD432C1F740E06D2F8C2F0E94D7
:104B60004425DF5FD43BC1F74BE06DEF8C2F0E94F3
:104B7000442541E06AE08C2F0E94442540E06DEF1F
:104B80008C2FDF91CF910C9444258635910578F5D3
:104B9000FC01EE0FFF1FEE0FFF1FDF01AC50BF4FF8
:104BA000CD010296FC0154910196FC013491FD0166
:104BB000859183707491A82FB0E0F0E98F9FC001B8
:104BC000112488549B4FFC01E70FF11DB4976083BB
:104BD000FC01E50FF11DB4974083830F911DFC018B
:104BE000B4972083FD01E85CFB4F81E0808308954A
:104BF000FF920F931F93CF93DF93182F062FF42E5E
:104C0000C0E0D0E02F2D402F612FCE010E94C5259E
:104C10002196C635D105B1F7DF91CF911F910F9144
:104C2000FF9008957F928F929F92AF92BF92CF9202
:104C3000DF92EF92FF920F931F93CF93DF93362F64
:104C400054E0859FC0011124DC01AC50BF4FFD0131
:104C500065916370762E649170E0CB0184978C012E
:104C600097FF02C0095F1F4FE3E015950795EA958E
:104C7000E1F7BD016E5F7F4FFB01649170E07B0146
:104C8000F4E2EF1AF108E701F7FC279673E0D595F7
:104C9000C7957A95E1F7FD013396649170E04B0179
:104CA00054E2851A9108F40197FC379653E0F59584
:104CB000E7955A95E1F768E0A62EB12CB5010E9460
:104CC00010346C01C701B5010E9410347C01C4018D
:104CD000B5010E9410341127672D70E0DD243323C5
:104CE00099F032E1369FD001379FB00D1124AE5FAD
:104CF000BB4FA00FB11F01E010E001C0000FCA942C
:104D0000EAF73C91032B13C032E1369FD001379F65
:104D1000B00D1124AE5FBB4FA00FB11F01E010E03A
:104D200001C0000FCA94EAF700953C9103230C934D
:104D3000DD27FF2432E1442391F0369FA001379F05
:104D4000500D11244E5F5B4FC40FD51F41E050E062
:104D500001C0440FEA94EAF73881432B12C0369F12
:104D6000A001379F500D11244E5F5B4FC40FD51F1C
:104D700041E050E001C0440FEA94EAF740953881E1
:104D800043234883AF015527992792E1969FF0016D
:104D9000979FF00D1124EE5FFB4FE40FF51F2223C8
:104DA00061F021E030E0A90102C0440F551F8A954F
:104DB000E2F7CA019081892B0CC021E030E0A90103
:104DC00002C0440F551F8A95E2F7CA018095908171
:104DD00089238083FB01E150FC4F81E08083DF91D8
:104DE000CF911F910F91FF90EF90DF90CF90BF90E8
:104DF000AF909F908F907F900895CF93DF93262F51
:104E000030E0E901C85CDB4F9881992351F090E9CB
:104E1000929FB001939F700D112468547B4F0E94A4
:104E200050251882DF91CF910895DF92EF92FF9283
:104E30000F931F93CF93DF93262F30E0A9014150AA
:104E40005C4F7A01FA01908191110AC0F70110823A
:104E5000DF91CF911F910F91FF90EF90DF90089518
:104E6000D82EF2E16F9FE001112400E010E0F8017C
:104E7000EC0FFD1FEE5FFB4F4081602F8D2D0E94D8
:104E800044250F5F1F4F0231110589F7DFCF8823BB
:104E900011F0FA0101C0FB0109941F93CF93DF9336
:104EA000FB011281112309F48CC0EC010E94230D37
:104EB0008272CB3CFCE5DF0709F46EC048F5C63CC6
:104EC000ECE5DE0709F454C070F4C43C9CE5D90756
:104ED00009F442C008F045C0C33CDC4509F074C089
:104EE0000E94382470C0C83C9CE5D90709F44AC028
:104EF00008F443C0C93CFCE5DF0709F448C0CA3CDC
:104F0000DC4509F061C040EF54E26FED74E22DC062
:104F1000C03DECE5DE0709F450C088F4CD3C9CE5CB
:104F2000D90709F443C0E8F1CE3CFCE5DF0709F4FA
:104F300042C0CF3CDC4509F047C085E03FC0C73DDB
:104F40009CE5D90728F4C23DDC45E8F582E136C08E
:104F5000CE35DD45C1F138C043E754E264E674E282
:104F600004C044E654E263E774E20E9447272BC082
:104F70004CEA54E269E974E2F8CF49E954E26CEA98
:104F800074E2F3CF4EEC54E26DEB74E2EECF4DEBF6
:104F900054E26EEC74E2E9CF4FED54E260EF74E25C
:104FA000E4CF42E155E265E075E2DFCF45E055E24E
:104FB00062E175E2DACF81E001C08DE00E94542405
:104FC00002C011E001C010E0812FDF91CF911F914D
:104FD00008950F931F93CF93DF93C42FD22FFC011B
:104FE00082818823C9F040933D040E94A42C9093B1
:104FF0003C0480933B0480E28C0F883008F057C05B
:10500000C77081E001C0880FCA95EAF7DF91CF91A0
:105010001F910F910C94380580913D04481330C0C6
:1050200080913B0490913C040E94BC2C883C9105EB
:1050300038F510E21D0FCD17B9F080E28C0F8830E3
:1050400040F4C77081E001C0880FCA95EAF70E945A
:105050003F05183028F581E09D2F977001C0880F1B
:105060009A95EAF70E943805802F0E942F05183084
:10507000F0F4D77081E001C0880FDA95EAF70AC032
:1050800080E28C0F883098F4C77081E001C0880FEF
:10509000CA95EAF7DF91CF911F910F910C943F05CC
:1050A000802FDF91CF911F910F910C942F05DF91ED
:1050B000CF911F910F9108950F939C01CB01243F35
:1050C0004CE5340731F188F4293DFCE53F07D9F080
:1050D0002A3D4CE5340779F1283D3C45A9F506E227
:1050E00021EE41EE68ED7CE52BC0263FFCE53F0755
:1050F000E1F0A8F0273F3C4539F507E225EE46EE02
:1051000067EF7CE51DC007E225EE45EE69ED7CE525
:1051100017C006E221EE40EE64EF7CE511C007E225
:1051200025EE44EE65EF7CE50BC006E221EE42EE93
:1051300066EF7CE505C008E221E045EE6AED7CE51E
:105140000E94E92780E008C0FC018281882319F0D1
:1051500010923D0401C081E00F910895CF93DF9339
:10516000EC01FB018281882309F426C1C430FDE5EE
:10517000DF0760F4CB3F9CE5D90768F49E0122501D
:105180003C452431310508F018C105C0C236EDE5B3
:10519000DE0709F012C10E94EE0D90936C0480931B
:1051A0006B04C031FCE5DF0709F4CAC008F041C058
:1051B000C8309CE5D90709F4A4C0F0F4C430FCE57C
:1051C000DF0709F48CC068F4C2309CE5D90709F404
:1051D00082C0C330DC4509F0E5C080916B04826079
:1051E000DFC0C630FCE5DF0709F483C008F085C0E6
:1051F00080916B048860D4C0CC309CE5D90709F459
:1052000090C068F4CA30FCE5DF0709F47EC008F0FE
:1052100084C00E94BC0780916B048068C1C0CE30FE
:105220009CE5D90709F481C008F086C080916B0421
:1052300094C0CD3FFCE5DF0709F47BC038F5C431ED
:105240009CE5D90709F49AC058F4C231FCE5DF07A0
:1052500009F47AC008F07EC080916B048F7BA0C0F7
:10526000CB3F9CE5D907F1F108F03FC0C531DC45E3
:1052700009F098C080916B0482FB222720F991E00D
:10528000922790FB82F990FB83F98AC0C1308DE5AB
:10529000D80709F467C050F480916C04CF3FECE567
:1052A000DE07C1F108F05BC08D7F65C0C3308DE5BE
:1052B000D80709F471C008F46DC0C236DD4509F0A5
:1052C00071C080916B0484FB222720F991E0922722
:1052D00090FB84F965C080916B04816061C080910E
:1052E0006B0416C080916C0416C080916C048260BF
:1052F00042C080916B04806153C080916B048062D6
:105300004FC080916B0480644BC080916B048860B7
:10531000846046C0826081602EC080916B048E7F65
:105320003FC080916B048D7F3BC080916B04877F71
:1053300037C080916C0414C080916B048F7E30C0A4
:1053400080916B048F7D2CC00E94BC0780916B0400
:105350008F7726C080916B04877F8B7F21C08D7FE4
:105360008E7F09C080916C04982F909591708E7FEC
:10537000892B90FB81F980936C0414C00E94BC07B8
:1053800080916B0487FB222720F991E0922790FB04
:1053900087F906C081E001C080E00E94850E02C04E
:1053A00080936B0480916B0490916C040E94FF0DBC
:1053B0000E94BC0780E001C081E0DF91CF91089599
:1053C000CF93DF9386319C4541F5EB010E94230D7D
:1053D000982F8A812091600230916102882379F0B0
:1053E0009A7A81E009F480E080933E04911102C032
:1053F00069E201C065E3C9010E94ED2B0AC08091FA
:105400003E04811102C069E201C065E3C9010E9446
:10541000F82B0E94680D80E001C081E0DF91CF9100
:1054200008951092B9008CE08093B80008959F927F
:10543000AF92BF92CF92DF92EF92FF920F931F93A2
:10544000CF93DF93B82EEB010E94A42C6C01C431E2
:10545000D10558F0CF3F8FEFD80759F0CE0164E166
:1054600070E00E94FC337B0107C0EE24E394F12C32
:1054700003C025E0E22EF12C84E8A82E94EA992EB0
:105480001092BC009092BC000E94A42C8C018091D0
:10549000BC0087FD08C00E94A42C801B910B8E15B8
:1054A0009F05A8F32AC08091B900887F883041F019
:1054B0008091B900887F803119F00FEF1FEF1FC076
:1054C000B092BB00A092BC000E94A42C8C018091E1
:1054D000BC0087FD08C00E94A42C801B910B8E1578
:1054E0009F05A8F30AC08091B900887F883111F028
:1054F000803419F700E010E00EC00EEF1FEFCF3F31
:105500008FEFD80709F4BCCFC6010E94BC2C8C17C2
:105510009D0708F4B5CFC801DF91CF911F910F917E
:10552000FF90EF90DF90CF90BF90AF909F90089545
:105530000F931F93CF93DF93EB018093BB0084E81D
:105540008093BC000E94A42C8C018091BC0087FD3C
:105550000EC0CF3F8FEFD807C1F30E94A42C801B51
:10556000910B8C179D0788F38EEF9FEF0CC0209155
:10557000B900287F81E090E0283211F480E090E0CB
:10558000919581959109DF91CF911F910F91089588
:10559000CF92DF92EF92FF920F931F93CF93DF93FF
:1055A0006B018A017901B9010E94172AE6010C0DED
:1055B0001D1DC017D10761F424E92093BC00DF91C1
:1055C000CF911F910F91FF90EF90DF90CF900895B2
:1055D00097FDF2CFB70189910E94982AEACF909364
:1055E0004404809343040895E0914304F0914404FB
:1055F000309721F00190F081E02D099480E008952A
:105600000E94F42A0895E0914304F09144043097F5
:1056100099F020917A02222359F020916B0427FF00
:1056200007C0DC012C9111962C93119725E02C9347
:105630000280F381E02D09940895E0914304F091F4
:105640004404309739F022E0DC012C930480F5818A
:10565000E02D0994089520914104309142042817C7
:10566000390771F09093420480934104E091430420
:10567000F0914404309721F00680F781E02D0994E1
:10568000089520913F04309140042817390771F0A4
:105690009093400480933F04E0914304F0914404CC
:1056A000309721F00084F185E02D09940895FC01E4
:1056B000329680917A02882331F080916B0487FFC3
:1056C00002C09EE101C096E080E0915028F0219157
:1056D0002223D9F38F5FF9CF0895662351F12091EA
:1056E0007A022223E9F020916B0427FF19C0462F8C
:1056F0004695469546954E31E0F4677021E030E0DE
:1057000002C0220F331F6A95E2F7FC01E40FF11D7E
:10571000828190E02823392381E0232B69F409C09A
:10572000FC01329608962191621729F0E817F907D3
:10573000D1F780E0089581E008959C01FC01329644
:105740009FEF80E04191461789F09F3F19F4411186
:1057500001C0982F8F5F8630A9F79F3F39F0F9017C
:10576000E90FF11D97FDFA956283089508959C0154
:105770002A5F3F4FFC014281461301C0128201960D
:1057800082179307B9F70895262F26952695269513
:105790002E3168F4FC01E20FF11D677021E030E06A
:1057A00001C0220F6A95EAF78281282B228308958F
:1057B000262F2695269526952E3170F4FC01E20FB2
:1057C000F11D677021E030E001C0220F6A95EAF711
:1057D0002095828128232283089520917A02222312
:1057E00029F020916B0427FD0C94C42B0C949D2B65
:1057F00020917A02222329F020916B0427FD0C943A
:10580000D82B0C94B72B20917A02FC0132962223DC
:1058100031F080916B0487FF02C08EE101C086E009
:10582000DF011D928A95E9F70895089508950C9473
:10583000162C0C94162CCF930E94192C0E94A612A1
:105840000E94172CC0E08C2F0E94C911892B29F4CB
:10585000CF5FC630C1F780E001C081E0CF910895ED
:105860000C94162C0C94302C80918406843061F1B9
:105870000E94322C80E00E94350481E00E941024B6
:105880001092450420E488E190E00FB6F894A895C2
:10589000809360000FBE2093600083B7817F846097
:1058A00083BF83B7816083BF7894889583B78E7FE9
:1058B00083BF0FB6F894A8958091600088618093AB
:1058C0006000109260000FBE08950C94162C0E9488
:1058D000BC070E94F42A0E94350480E00E94102434
:1058E0000C94652C1F920F920FB60F9211248F9378
:1058F0009F93AF93BF9380914504811113C0809112
:105900007C0690917D06A0917E06B0917F0641961F
:10591000A11DB11D80937C0690937D06A0937E0609
:10592000B0937F06BF91AF919F918F910F900FBE63
:105930000F901F90189582E084BD93E095BD9AEF7B
:1059400097BD80936E0008952FB7F89480917C06E0
:1059500090917D06A0917E06B0917F062FBF08959D
:105960002FB7F89460917C0670917D0680917E0639
:1059700090917F062FBF08959C014FB7F8948091B6
:105980007C0690917D06A0917E06B0917F064FBF68
:10599000821B930B0895CF92DF92EF92FF922FB765
:1059A000F894C0907C06D0907D06E0907E06F09042
:1059B0007F062FBFA7019601261B370B480B590BFB
:1059C000CA01B901FF90EF90DF90CF9008957894CD
:1059D0001F920F920FB60F9211248F939F93AF9344
:1059E000BF9380917C0690917D06A0917E06B09138
:1059F0007F060196A11DB11D80937C0690937D06C4
:105A0000A0937E06B0937F06BF91AF919F918F9137
:105A10000F900FBE0F901F90189581E08093E000CB
:105A200080E28093D8001092C9008FE19EE4019734
:105A3000F1F700C0000087E090EBDC0180938D0659
:105A400090938E06A0938F06B09390069CE088E119
:105A50000FB6F894A895809360000FBE90936000F5
:105A6000FFCF909307038093060308958091690404
:105A7000089590918406943031F580934604709394
:105A800048046093470482E08093E9008FEF90918F
:105A9000E800815095FD06C095ED9A95F1F700005C
:105AA0008111F5CF8091E80085FF0DC040E050E006
:105AB00063E070E086E494E00E945E2F8091E8004D
:105AC0008E778093E8000895BC0184E00C94392D12
:105AD000BC0183E00C94392D22E02093E9002FEFE4
